{
  "_format": "hh-sol-artifact-1",
  "contractName": "DUNK",
  "sourceName": "contracts/DUNK.sol",
  "abi": [
    {
      "inputs": [
        {
          "internalType": "address",
          "name": "initialOwner",
          "type": "address"
        }
      ],
      "stateMutability": "nonpayable",
      "type": "constructor"
    },
    {
      "inputs": [],
      "name": "ECDSAInvalidSignature",
      "type": "error"
    },
    {
      "inputs": [
        {
          "internalType": "uint256",
          "name": "length",
          "type": "uint256"
        }
      ],
      "name": "ECDSAInvalidSignatureLength",
      "type": "error"
    },
    {
      "inputs": [
        {
          "internalType": "bytes32",
          "name": "s",
          "type": "bytes32"
        }
      ],
      "name": "ECDSAInvalidSignatureS",
      "type": "error"
    },
    {
      "inputs": [
        {
          "internalType": "address",
          "name": "spender",
          "type": "address"
        },
        {
          "internalType": "uint256",
          "name": "allowance",
          "type": "uint256"
        },
        {
          "internalType": "uint256",
          "name": "needed",
          "type": "uint256"
        }
      ],
      "name": "ERC20InsufficientAllowance",
      "type": "error"
    },
    {
      "inputs": [
        {
          "internalType": "address",
          "name": "sender",
          "type": "address"
        },
        {
          "internalType": "uint256",
          "name": "balance",
          "type": "uint256"
        },
        {
          "internalType": "uint256",
          "name": "needed",
          "type": "uint256"
        }
      ],
      "name": "ERC20InsufficientBalance",
      "type": "error"
    },
    {
      "inputs": [
        {
          "internalType": "address",
          "name": "approver",
          "type": "address"
        }
      ],
      "name": "ERC20InvalidApprover",
      "type": "error"
    },
    {
      "inputs": [
        {
          "internalType": "address",
          "name": "receiver",
          "type": "address"
        }
      ],
      "name": "ERC20InvalidReceiver",
      "type": "error"
    },
    {
      "inputs": [
        {
          "internalType": "address",
          "name": "sender",
          "type": "address"
        }
      ],
      "name": "ERC20InvalidSender",
      "type": "error"
    },
    {
      "inputs": [
        {
          "internalType": "address",
          "name": "spender",
          "type": "address"
        }
      ],
      "name": "ERC20InvalidSpender",
      "type": "error"
    },
    {
      "inputs": [
        {
          "internalType": "uint256",
          "name": "deadline",
          "type": "uint256"
        }
      ],
      "name": "ERC2612ExpiredSignature",
      "type": "error"
    },
    {
      "inputs": [
        {
          "internalType": "address",
          "name": "signer",
          "type": "address"
        },
        {
          "internalType": "address",
          "name": "owner",
          "type": "address"
        }
      ],
      "name": "ERC2612InvalidSigner",
      "type": "error"
    },
    {
      "inputs": [
        {
          "internalType": "address",
          "name": "account",
          "type": "address"
        },
        {
          "internalType": "uint256",
          "name": "currentNonce",
          "type": "uint256"
        }
      ],
      "name": "InvalidAccountNonce",
      "type": "error"
    },
    {
      "inputs": [],
      "name": "InvalidShortString",
      "type": "error"
    },
    {
      "inputs": [
        {
          "internalType": "address",
          "name": "owner",
          "type": "address"
        }
      ],
      "name": "OwnableInvalidOwner",
      "type": "error"
    },
    {
      "inputs": [
        {
          "internalType": "address",
          "name": "account",
          "type": "address"
        }
      ],
      "name": "OwnableUnauthorizedAccount",
      "type": "error"
    },
    {
      "inputs": [
        {
          "internalType": "string",
          "name": "str",
          "type": "string"
        }
      ],
      "name": "StringTooLong",
      "type": "error"
    },
    {
      "anonymous": false,
      "inputs": [
        {
          "indexed": true,
          "internalType": "address",
          "name": "owner",
          "type": "address"
        },
        {
          "indexed": true,
          "internalType": "address",
          "name": "spender",
          "type": "address"
        },
        {
          "indexed": false,
          "internalType": "uint256",
          "name": "value",
          "type": "uint256"
        }
      ],
      "name": "Approval",
      "type": "event"
    },
    {
      "anonymous": false,
      "inputs": [],
      "name": "EIP712DomainChanged",
      "type": "event"
    },
    {
      "anonymous": false,
      "inputs": [
        {
          "indexed": true,
          "internalType": "address",
          "name": "previousOwner",
          "type": "address"
        },
        {
          "indexed": true,
          "internalType": "address",
          "name": "newOwner",
          "type": "address"
        }
      ],
      "name": "OwnershipTransferred",
      "type": "event"
    },
    {
      "anonymous": false,
      "inputs": [
        {
          "indexed": true,
          "internalType": "address",
          "name": "from",
          "type": "address"
        },
        {
          "indexed": true,
          "internalType": "address",
          "name": "to",
          "type": "address"
        },
        {
          "indexed": false,
          "internalType": "uint256",
          "name": "value",
          "type": "uint256"
        }
      ],
      "name": "Transfer",
      "type": "event"
    },
    {
      "inputs": [],
      "name": "DOMAIN_SEPARATOR",
      "outputs": [
        {
          "internalType": "bytes32",
          "name": "",
          "type": "bytes32"
        }
      ],
      "stateMutability": "view",
      "type": "function"
    },
    {
      "inputs": [
        {
          "internalType": "address",
          "name": "owner",
          "type": "address"
        },
        {
          "internalType": "address",
          "name": "spender",
          "type": "address"
        }
      ],
      "name": "allowance",
      "outputs": [
        {
          "internalType": "uint256",
          "name": "",
          "type": "uint256"
        }
      ],
      "stateMutability": "view",
      "type": "function"
    },
    {
      "inputs": [
        {
          "internalType": "address",
          "name": "spender",
          "type": "address"
        },
        {
          "internalType": "uint256",
          "name": "value",
          "type": "uint256"
        }
      ],
      "name": "approve",
      "outputs": [
        {
          "internalType": "bool",
          "name": "",
          "type": "bool"
        }
      ],
      "stateMutability": "nonpayable",
      "type": "function"
    },
    {
      "inputs": [
        {
          "internalType": "address",
          "name": "account",
          "type": "address"
        }
      ],
      "name": "balanceOf",
      "outputs": [
        {
          "internalType": "uint256",
          "name": "",
          "type": "uint256"
        }
      ],
      "stateMutability": "view",
      "type": "function"
    },
    {
      "inputs": [
        {
          "internalType": "uint256",
          "name": "value",
          "type": "uint256"
        }
      ],
      "name": "burn",
      "outputs": [],
      "stateMutability": "nonpayable",
      "type": "function"
    },
    {
      "inputs": [
        {
          "internalType": "address",
          "name": "account",
          "type": "address"
        },
        {
          "internalType": "uint256",
          "name": "value",
          "type": "uint256"
        }
      ],
      "name": "burnFrom",
      "outputs": [],
      "stateMutability": "nonpayable",
      "type": "function"
    },
    {
      "inputs": [],
      "name": "decimals",
      "outputs": [
        {
          "internalType": "uint8",
          "name": "",
          "type": "uint8"
        }
      ],
      "stateMutability": "view",
      "type": "function"
    },
    {
      "inputs": [],
      "name": "eip712Domain",
      "outputs": [
        {
          "internalType": "bytes1",
          "name": "fields",
          "type": "bytes1"
        },
        {
          "internalType": "string",
          "name": "name",
          "type": "string"
        },
        {
          "internalType": "string",
          "name": "version",
          "type": "string"
        },
        {
          "internalType": "uint256",
          "name": "chainId",
          "type": "uint256"
        },
        {
          "internalType": "address",
          "name": "verifyingContract",
          "type": "address"
        },
        {
          "internalType": "bytes32",
          "name": "salt",
          "type": "bytes32"
        },
        {
          "internalType": "uint256[]",
          "name": "extensions",
          "type": "uint256[]"
        }
      ],
      "stateMutability": "view",
      "type": "function"
    },
    {
      "inputs": [],
      "name": "name",
      "outputs": [
        {
          "internalType": "string",
          "name": "",
          "type": "string"
        }
      ],
      "stateMutability": "view",
      "type": "function"
    },
    {
      "inputs": [
        {
          "internalType": "address",
          "name": "owner",
          "type": "address"
        }
      ],
      "name": "nonces",
      "outputs": [
        {
          "internalType": "uint256",
          "name": "",
          "type": "uint256"
        }
      ],
      "stateMutability": "view",
      "type": "function"
    },
    {
      "inputs": [],
      "name": "owner",
      "outputs": [
        {
          "internalType": "address",
          "name": "",
          "type": "address"
        }
      ],
      "stateMutability": "view",
      "type": "function"
    },
    {
      "inputs": [
        {
          "internalType": "address",
          "name": "owner",
          "type": "address"
        },
        {
          "internalType": "address",
          "name": "spender",
          "type": "address"
        },
        {
          "internalType": "uint256",
          "name": "value",
          "type": "uint256"
        },
        {
          "internalType": "uint256",
          "name": "deadline",
          "type": "uint256"
        },
        {
          "internalType": "uint8",
          "name": "v",
          "type": "uint8"
        },
        {
          "internalType": "bytes32",
          "name": "r",
          "type": "bytes32"
        },
        {
          "internalType": "bytes32",
          "name": "s",
          "type": "bytes32"
        }
      ],
      "name": "permit",
      "outputs": [],
      "stateMutability": "nonpayable",
      "type": "function"
    },
    {
      "inputs": [],
      "name": "renounceOwnership",
      "outputs": [],
      "stateMutability": "nonpayable",
      "type": "function"
    },
    {
      "inputs": [],
      "name": "symbol",
      "outputs": [
        {
          "internalType": "string",
          "name": "",
          "type": "string"
        }
      ],
      "stateMutability": "view",
      "type": "function"
    },
    {
      "inputs": [],
      "name": "totalSupply",
      "outputs": [
        {
          "internalType": "uint256",
          "name": "",
          "type": "uint256"
        }
      ],
      "stateMutability": "view",
      "type": "function"
    },
    {
      "inputs": [
        {
          "internalType": "address",
          "name": "to",
          "type": "address"
        },
        {
          "internalType": "uint256",
          "name": "value",
          "type": "uint256"
        }
      ],
      "name": "transfer",
      "outputs": [
        {
          "internalType": "bool",
          "name": "",
          "type": "bool"
        }
      ],
      "stateMutability": "nonpayable",
      "type": "function"
    },
    {
      "inputs": [
        {
          "internalType": "address",
          "name": "from",
          "type": "address"
        },
        {
          "internalType": "address",
          "name": "to",
          "type": "address"
        },
        {
          "internalType": "uint256",
          "name": "value",
          "type": "uint256"
        }
      ],
      "name": "transferFrom",
      "outputs": [
        {
          "internalType": "bool",
          "name": "",
          "type": "bool"
        }
      ],
      "stateMutability": "nonpayable",
      "type": "function"
    },
    {
      "inputs": [
        {
          "internalType": "address",
          "name": "newOwner",
          "type": "address"
        }
      ],
      "name": "transferOwnership",
      "outputs": [],
      "stateMutability": "nonpayable",
      "type": "function"
    }
  ],
  "bytecode": "0x6101606040523480156200001257600080fd5b50604051620018dc380380620018dc833981016040819052620000359162000437565b806040518060400160405280600481526020016344554e4b60e01b81525080604051806040016040528060018152602001603160f81b8152506040518060400160405280600481526020016344554e4b60e01b815250604051806040016040528060048152602001635348415160e01b8152508160039081620000b991906200050e565b506004620000c882826200050e565b50620000da91508390506005620001f8565b61012052620000eb816006620001f8565b61014052815160208084019190912060e052815190820120610100524660a0526200017960e05161010051604080517f8b73c3c69bb8fe3d512ecc4cf759cc79239f7b179b0ffacaa9a75d522b39400f60208201529081019290925260608201524660808201523060a082015260009060c00160405160208183030381529060405280519060200120905090565b60805250503060c052506001600160a01b038116620001b357604051631e4fbdf760e01b8152600060048201526024015b60405180910390fd5b620001be8162000231565b50620001f133620001d26012600a620006ed565b620001eb906c04146b82e440aba123877a8588620006fe565b62000283565b50620007a3565b600060208351101562000218576200021083620002c1565b90506200022b565b816200022584826200050e565b5060ff90505b92915050565b600880546001600160a01b038381166001600160a01b0319831681179093556040519116919082907f8be0079c531659141344cd1fd0a4f28419497f9722a3daafe3b4186f6b6457e090600090a35050565b6001600160a01b038216620002af5760405163ec442f0560e01b815260006004820152602401620001aa565b620002bd6000838362000304565b5050565b600080829050601f81511115620002ef578260405163305a27a960e01b8152600401620001aa919062000718565b8051620002fc8262000768565b179392505050565b6001600160a01b038316620003335780600260008282546200032791906200078d565b90915550620003a79050565b6001600160a01b03831660009081526020819052604090205481811015620003885760405163391434e360e21b81526001600160a01b03851660048201526024810182905260448101839052606401620001aa565b6001600160a01b03841660009081526020819052604090209082900390555b6001600160a01b038216620003c557600280548290039055620003e4565b6001600160a01b03821660009081526020819052604090208054820190555b816001600160a01b0316836001600160a01b03167fddf252ad1be2c89b69c2b068fc378daa952ba7f163c4a11628f55a4df523b3ef836040516200042a91815260200190565b60405180910390a3505050565b6000602082840312156200044a57600080fd5b81516001600160a01b03811681146200046257600080fd5b9392505050565b634e487b7160e01b600052604160045260246000fd5b600181811c908216806200049457607f821691505b602082108103620004b557634e487b7160e01b600052602260045260246000fd5b50919050565b601f8211156200050957600081815260208120601f850160051c81016020861015620004e45750805b601f850160051c820191505b818110156200050557828155600101620004f0565b5050505b505050565b81516001600160401b038111156200052a576200052a62000469565b62000542816200053b84546200047f565b84620004bb565b602080601f8311600181146200057a5760008415620005615750858301515b600019600386901b1c1916600185901b17855562000505565b600085815260208120601f198616915b82811015620005ab578886015182559484019460019091019084016200058a565b5085821015620005ca5787850151600019600388901b60f8161c191681555b5050505050600190811b01905550565b634e487b7160e01b600052601160045260246000fd5b600181815b8085111562000631578160001904821115620006155762000615620005da565b808516156200062357918102915b93841c9390800290620005f5565b509250929050565b6000826200064a575060016200022b565b8162000659575060006200022b565b81600181146200067257600281146200067d576200069d565b60019150506200022b565b60ff841115620006915762000691620005da565b50506001821b6200022b565b5060208310610133831016604e8410600b8410161715620006c2575081810a6200022b565b620006ce8383620005f0565b8060001904821115620006e557620006e5620005da565b029392505050565b60006200046260ff84168362000639565b80820281158282048414176200022b576200022b620005da565b600060208083528351808285015260005b81811015620007475785810183015185820160400152820162000729565b506000604082860101526040601f19601f8301168501019250505092915050565b80516020808301519190811015620004b55760001960209190910360031b1b16919050565b808201808211156200022b576200022b620005da565b60805160a05160c05160e0516101005161012051610140516110de620007fe60003960006108cb0152600061089e0152600061079101526000610769015260006106c4015260006106ee0152600061071801526110de6000f3fe608060405234801561001057600080fd5b50600436106101165760003560e01c806379cc6790116100a257806395d89b411161007157806395d89b411461023a578063a9059cbb14610242578063d505accf14610255578063dd62ed3e14610268578063f2fde38b146102a157600080fd5b806379cc6790146101de5780637ecebe00146101f157806384b0196e146102045780638da5cb5b1461021f57600080fd5b8063313ce567116100e9578063313ce567146101815780633644e5151461019057806342966c681461019857806370a08231146101ad578063715018a6146101d657600080fd5b806306fdde031461011b578063095ea7b31461013957806318160ddd1461015c57806323b872dd1461016e575b600080fd5b6101236102b4565b6040516101309190610e2b565b60405180910390f35b61014c610147366004610e61565b610346565b6040519015158152602001610130565b6002545b604051908152602001610130565b61014c61017c366004610e8b565b610360565b60405160128152602001610130565b610160610384565b6101ab6101a6366004610ec7565b610393565b005b6101606101bb366004610ee0565b6001600160a01b031660009081526020819052604090205490565b6101ab6103a0565b6101ab6101ec366004610e61565b6103b4565b6101606101ff366004610ee0565b6103cd565b61020c6103eb565b6040516101309796959493929190610efb565b6008546040516001600160a01b039091168152602001610130565b610123610431565b61014c610250366004610e61565b610440565b6101ab610263366004610f91565b61044e565b610160610276366004611004565b6001600160a01b03918216600090815260016020908152604080832093909416825291909152205490565b6101ab6102af366004610ee0565b61058d565b6060600380546102c390611037565b80601f01602080910402602001604051908101604052809291908181526020018280546102ef90611037565b801561033c5780601f106103115761010080835404028352916020019161033c565b820191906000526020600020905b81548152906001019060200180831161031f57829003601f168201915b5050505050905090565b6000336103548185856105c8565b60019150505b92915050565b60003361036e8582856105da565b610379858585610658565b506001949350505050565b600061038e6106b7565b905090565b61039d33826107e2565b50565b6103a8610818565b6103b26000610845565b565b6103bf8233836105da565b6103c982826107e2565b5050565b6001600160a01b03811660009081526007602052604081205461035a565b6000606080600080600060606103ff610897565b6104076108c4565b60408051600080825260208201909252600f60f81b9b939a50919850469750309650945092509050565b6060600480546102c390611037565b600033610354818585610658565b834211156104775760405163313c898160e11b8152600481018590526024015b60405180910390fd5b60007f6e71edae12b1b97f4d1f60370fef10105fa2faae0126114a169c64845d6126c98888886104c48c6001600160a01b0316600090815260076020526040902080546001810190915590565b6040805160208101969096526001600160a01b0394851690860152929091166060840152608083015260a082015260c0810186905260e001604051602081830303815290604052805190602001209050600061051f826108f1565b9050600061052f8287878761091e565b9050896001600160a01b0316816001600160a01b031614610576576040516325c0072360e11b81526001600160a01b0380831660048301528b16602482015260440161046e565b6105818a8a8a6105c8565b50505050505050505050565b610595610818565b6001600160a01b0381166105bf57604051631e4fbdf760e01b81526000600482015260240161046e565b61039d81610845565b6105d5838383600161094c565b505050565b6001600160a01b038381166000908152600160209081526040808320938616835292905220546000198114610652578181101561064357604051637dc7a0d960e11b81526001600160a01b0384166004820152602481018290526044810183905260640161046e565b6106528484848403600061094c565b50505050565b6001600160a01b03831661068257604051634b637e8f60e11b81526000600482015260240161046e565b6001600160a01b0382166106ac5760405163ec442f0560e01b81526000600482015260240161046e565b6105d5838383610a21565b6000306001600160a01b037f00000000000000000000000000000000000000000000000000000000000000001614801561071057507f000000000000000000000000000000000000000000000000000000000000000046145b1561073a57507f000000000000000000000000000000000000000000000000000000000000000090565b61038e604080517f8b73c3c69bb8fe3d512ecc4cf759cc79239f7b179b0ffacaa9a75d522b39400f60208201527f0000000000000000000000000000000000000000000000000000000000000000918101919091527f000000000000000000000000000000000000000000000000000000000000000060608201524660808201523060a082015260009060c00160405160208183030381529060405280519060200120905090565b6001600160a01b03821661080c57604051634b637e8f60e11b81526000600482015260240161046e565b6103c982600083610a21565b6008546001600160a01b031633146103b25760405163118cdaa760e01b815233600482015260240161046e565b600880546001600160a01b038381166001600160a01b0319831681179093556040519116919082907f8be0079c531659141344cd1fd0a4f28419497f9722a3daafe3b4186f6b6457e090600090a35050565b606061038e7f00000000000000000000000000000000000000000000000000000000000000006005610b4b565b606061038e7f00000000000000000000000000000000000000000000000000000000000000006006610b4b565b600061035a6108fe6106b7565b8360405161190160f01b8152600281019290925260228201526042902090565b60008060008061093088888888610bf6565b9250925092506109408282610cc5565b50909695505050505050565b6001600160a01b0384166109765760405163e602df0560e01b81526000600482015260240161046e565b6001600160a01b0383166109a057604051634a1406b160e11b81526000600482015260240161046e565b6001600160a01b038085166000908152600160209081526040808320938716835292905220829055801561065257826001600160a01b0316846001600160a01b03167f8c5be1e5ebec7d5bd14f71427d1e84f3dd0314c0f7b2291e5b200ac8c7c3b92584604051610a1391815260200190565b60405180910390a350505050565b6001600160a01b038316610a4c578060026000828254610a419190611071565b90915550610abe9050565b6001600160a01b03831660009081526020819052604090205481811015610a9f5760405163391434e360e21b81526001600160a01b0385166004820152602481018290526044810183905260640161046e565b6001600160a01b03841660009081526020819052604090209082900390555b6001600160a01b038216610ada57600280548290039055610af9565b6001600160a01b03821660009081526020819052604090208054820190555b816001600160a01b0316836001600160a01b03167fddf252ad1be2c89b69c2b068fc378daa952ba7f163c4a11628f55a4df523b3ef83604051610b3e91815260200190565b60405180910390a3505050565b606060ff8314610b6557610b5e83610d7e565b905061035a565b818054610b7190611037565b80601f0160208091040260200160405190810160405280929190818152602001828054610b9d90611037565b8015610bea5780601f10610bbf57610100808354040283529160200191610bea565b820191906000526020600020905b815481529060010190602001808311610bcd57829003601f168201915b5050505050905061035a565b600080807f7fffffffffffffffffffffffffffffff5d576e7357a4501ddfe92f46681b20a0841115610c315750600091506003905082610cbb565b604080516000808252602082018084528a905260ff891692820192909252606081018790526080810186905260019060a0016020604051602081039080840390855afa158015610c85573d6000803e3d6000fd5b5050604051601f1901519150506001600160a01b038116610cb157506000925060019150829050610cbb565b9250600091508190505b9450945094915050565b6000826003811115610cd957610cd9611092565b03610ce2575050565b6001826003811115610cf657610cf6611092565b03610d145760405163f645eedf60e01b815260040160405180910390fd5b6002826003811115610d2857610d28611092565b03610d495760405163fce698f760e01b81526004810182905260240161046e565b6003826003811115610d5d57610d5d611092565b036103c9576040516335e2f38360e21b81526004810182905260240161046e565b60606000610d8b83610dbd565b604080516020808252818301909252919250600091906020820181803683375050509182525060208101929092525090565b600060ff8216601f81111561035a57604051632cd44ac360e21b815260040160405180910390fd5b6000815180845260005b81811015610e0b57602081850181015186830182015201610def565b506000602082860101526020601f19601f83011685010191505092915050565b602081526000610e3e6020830184610de5565b9392505050565b80356001600160a01b0381168114610e5c57600080fd5b919050565b60008060408385031215610e7457600080fd5b610e7d83610e45565b946020939093013593505050565b600080600060608486031215610ea057600080fd5b610ea984610e45565b9250610eb760208501610e45565b9150604084013590509250925092565b600060208284031215610ed957600080fd5b5035919050565b600060208284031215610ef257600080fd5b610e3e82610e45565b60ff60f81b881681526000602060e081840152610f1b60e084018a610de5565b8381036040850152610f2d818a610de5565b606085018990526001600160a01b038816608086015260a0850187905284810360c0860152855180825283870192509083019060005b81811015610f7f57835183529284019291840191600101610f63565b50909c9b505050505050505050505050565b600080600080600080600060e0888a031215610fac57600080fd5b610fb588610e45565b9650610fc360208901610e45565b95506040880135945060608801359350608088013560ff81168114610fe757600080fd5b9699959850939692959460a0840135945060c09093013592915050565b6000806040838503121561101757600080fd5b61102083610e45565b915061102e60208401610e45565b90509250929050565b600181811c9082168061104b57607f821691505b60208210810361106b57634e487b7160e01b600052602260045260246000fd5b50919050565b8082018082111561035a57634e487b7160e01b600052601160045260246000fd5b634e487b7160e01b600052602160045260246000fdfea264697066735822122083000beb0656ed67afa7384c1e490e003f8434ec77a4dc8d7eb4efec4d15562a64736f6c63430008140033",
  "linkReferences": {},
  "deployedLinkReferences": {}
}